{
  "_format": "hh-sol-artifact-1",
  "contractName": "DeBlock",
  "sourceName": "contracts/DeBlock.sol",
  "abi": [
    {
      "inputs": [],
      "name": "PostCount",
      "outputs": [
        {
          "internalType": "uint256",
          "name": "",
          "type": "uint256"
        }
      ],
      "stateMutability": "view",
      "type": "function"
    },
    {
      "inputs": [
        {
          "internalType": "address",
          "name": "",
          "type": "address"
        }
      ],
      "name": "TopPoster",
      "outputs": [
        {
          "internalType": "uint256",
          "name": "",
          "type": "uint256"
        }
      ],
      "stateMutability": "view",
      "type": "function"
    },
    {
      "inputs": [
        {
          "internalType": "string",
          "name": "_message",
          "type": "string"
        }
      ],
      "name": "addPost",
      "outputs": [],
      "stateMutability": "nonpayable",
      "type": "function"
    },
    {
      "inputs": [],
      "name": "getAllPosts",
      "outputs": [
        {
          "components": [
            {
              "internalType": "address",
              "name": "_person",
              "type": "address"
            },
            {
              "internalType": "string",
              "name": "_message",
              "type": "string"
            },
            {
              "internalType": "uint256",
              "name": "_id",
              "type": "uint256"
            }
          ],
          "internalType": "struct DeBlock.Post[]",
          "name": "",
          "type": "tuple[]"
        }
      ],
      "stateMutability": "view",
      "type": "function"
    },
    {
      "inputs": [
        {
          "internalType": "uint256",
          "name": "",
          "type": "uint256"
        }
      ],
      "name": "posts",
      "outputs": [
        {
          "internalType": "address",
          "name": "_person",
          "type": "address"
        },
        {
          "internalType": "string",
          "name": "_message",
          "type": "string"
        },
        {
          "internalType": "uint256",
          "name": "_id",
          "type": "uint256"
        }
      ],
      "stateMutability": "view",
      "type": "function"
    }
  ],
  "bytecode": "0x608060405234801561001057600080fd5b50610daf806100206000396000f3fe608060405234801561001057600080fd5b50600436106100575760003560e01c80630b1e7f831461005c578063305611001461008e578063a2d1eceb146100ac578063a6322819146100ca578063d1638566146100e6575b600080fd5b61007660048036038101906100719190610865565b610116565b60405161008593929190610a15565b60405180910390f35b6100966101f8565b6040516100a39190610a53565b60405180910390f35b6100b4610430565b6040516100c19190610aac565b60405180910390f35b6100e460048036038101906100df9190610824565b610436565b005b61010060048036038101906100fb91906107fb565b6105b2565b60405161010d9190610aac565b60405180910390f35b6001818154811061012657600080fd5b90600052602060002090600302016000915090508060000160009054906101000a900473ffffffffffffffffffffffffffffffffffffffff169080600101805461016f90610c01565b80601f016020809104026020016040519081016040528092919081815260200182805461019b90610c01565b80156101e85780601f106101bd576101008083540402835291602001916101e8565b820191906000526020600020905b8154815290600101906020018083116101cb57829003601f168201915b5050505050908060020154905083565b60606000805467ffffffffffffffff81111561023d577f4e487b7100000000000000000000000000000000000000000000000000000000600052604160045260246000fd5b60405190808252806020026020018201604052801561027657816020015b61026361068f565b81526020019060019003908161025b5790505b50905060005b600054811015610428576000600182815481106102c2577f4e487b7100000000000000000000000000000000000000000000000000000000600052603260045260246000fd5b90600052602060002090600302019050806040518060600160405290816000820160009054906101000a900473ffffffffffffffffffffffffffffffffffffffff1673ffffffffffffffffffffffffffffffffffffffff1673ffffffffffffffffffffffffffffffffffffffff16815260200160018201805461034490610c01565b80601f016020809104026020016040519081016040528092919081815260200182805461037090610c01565b80156103bd5780601f10610392576101008083540402835291602001916103bd565b820191906000526020600020905b8154815290600101906020018083116103a057829003601f168201915b50505050508152602001600282015481525050838381518110610409577f4e487b7100000000000000000000000000000000000000000000000000000000600052603260045260246000fd5b602002602001018190525050808061042090610c64565b91505061027c565b508091505090565b60005481565b60008081548092919061044890610c64565b9190505550600260003373ffffffffffffffffffffffffffffffffffffffff1673ffffffffffffffffffffffffffffffffffffffff168152602001908152602001600020600081548092919061049d90610c64565b9190505550600160405180606001604052803373ffffffffffffffffffffffffffffffffffffffff168152602001838152602001600054815250908060018154018082558091505060019003906000526020600020906003020160009091909190915060008201518160000160006101000a81548173ffffffffffffffffffffffffffffffffffffffff021916908373ffffffffffffffffffffffffffffffffffffffff16021790555060208201518160010190805190602001906105639291906106c6565b506040820151816002015550506105af6040518060400160405280601281526020017f526563656e7420706f7374207761732025730000000000000000000000000000815250826105ca565b50565b60026020528060005260406000206000915090505481565b61066282826040516024016105e0929190610a75565b6040516020818303038152906040527f4b5c4277000000000000000000000000000000000000000000000000000000007bffffffffffffffffffffffffffffffffffffffffffffffffffffffff19166020820180517bffffffffffffffffffffffffffffffffffffffffffffffffffffffff8381831617835250505050610666565b5050565b60008151905060006a636f6e736f6c652e6c6f679050602083016000808483855afa5050505050565b6040518060600160405280600073ffffffffffffffffffffffffffffffffffffffff16815260200160608152602001600081525090565b8280546106d290610c01565b90600052602060002090601f0160209004810192826106f4576000855561073b565b82601f1061070d57805160ff191683800117855561073b565b8280016001018555821561073b579182015b8281111561073a57825182559160200191906001019061071f565b5b509050610748919061074c565b5090565b5b8082111561076557600081600090555060010161074d565b5090565b600061077c61077784610aec565b610ac7565b90508281526020810184848401111561079457600080fd5b61079f848285610bbf565b509392505050565b6000813590506107b681610d4b565b92915050565b600082601f8301126107cd57600080fd5b81356107dd848260208601610769565b91505092915050565b6000813590506107f581610d62565b92915050565b60006020828403121561080d57600080fd5b600061081b848285016107a7565b91505092915050565b60006020828403121561083657600080fd5b600082013567ffffffffffffffff81111561085057600080fd5b61085c848285016107bc565b91505092915050565b60006020828403121561087757600080fd5b6000610885848285016107e6565b91505092915050565b600061089a83836109a7565b905092915050565b6108ab81610b83565b82525050565b6108ba81610b83565b82525050565b60006108cb82610b2d565b6108d58185610b50565b9350836020820285016108e785610b1d565b8060005b858110156109235784840389528151610904858261088e565b945061090f83610b43565b925060208a019950506001810190506108eb565b50829750879550505050505092915050565b600061094082610b38565b61094a8185610b61565b935061095a818560208601610bce565b61096381610d3a565b840191505092915050565b600061097982610b38565b6109838185610b72565b9350610993818560208601610bce565b61099c81610d3a565b840191505092915050565b60006060830160008301516109bf60008601826108a2565b50602083015184820360208601526109d78282610935565b91505060408301516109ec60408601826109f7565b508091505092915050565b610a0081610bb5565b82525050565b610a0f81610bb5565b82525050565b6000606082019050610a2a60008301866108b1565b8181036020830152610a3c818561096e565b9050610a4b6040830184610a06565b949350505050565b60006020820190508181036000830152610a6d81846108c0565b905092915050565b60006040820190508181036000830152610a8f818561096e565b90508181036020830152610aa3818461096e565b90509392505050565b6000602082019050610ac16000830184610a06565b92915050565b6000610ad1610ae2565b9050610add8282610c33565b919050565b6000604051905090565b600067ffffffffffffffff821115610b0757610b06610d0b565b5b610b1082610d3a565b9050602081019050919050565b6000819050602082019050919050565b600081519050919050565b600081519050919050565b6000602082019050919050565b600082825260208201905092915050565b600082825260208201905092915050565b600082825260208201905092915050565b6000610b8e82610b95565b9050919050565b600073ffffffffffffffffffffffffffffffffffffffff82169050919050565b6000819050919050565b82818337600083830152505050565b60005b83811015610bec578082015181840152602081019050610bd1565b83811115610bfb576000848401525b50505050565b60006002820490506001821680610c1957607f821691505b60208210811415610c2d57610c2c610cdc565b5b50919050565b610c3c82610d3a565b810181811067ffffffffffffffff82111715610c5b57610c5a610d0b565b5b80604052505050565b6000610c6f82610bb5565b91507fffffffffffffffffffffffffffffffffffffffffffffffffffffffffffffffff821415610ca257610ca1610cad565b5b600182019050919050565b7f4e487b7100000000000000000000000000000000000000000000000000000000600052601160045260246000fd5b7f4e487b7100000000000000000000000000000000000000000000000000000000600052602260045260246000fd5b7f4e487b7100000000000000000000000000000000000000000000000000000000600052604160045260246000fd5b6000601f19601f8301169050919050565b610d5481610b83565b8114610d5f57600080fd5b50565b610d6b81610bb5565b8114610d7657600080fd5b5056fea2646970667358221220621098c5a0c682ed7d94b7653efd3106fb0e0a3962f38e05607ebe3d806826a464736f6c63430008040033",
  "linkReferences": {},
  "deployedLinkReferences": {}
}